:020000040800F2
:100000000000022039080008550700085D070008B5
:10001000650700086D07000875070008000000006C
:100020000000000000000000000000007D07000844
:10003000890700080000000095070008A1070008D4
:10004000890800088908000889080008890800084C
:10005000890800088908000889080008890800083C
:10006000890800088908000889080008890800082C
:10007000890800088908000889080008890800081C
:10008000890800088908000889080008890800080C
:1000900089080008890800088908000889080008FC
:1000A00089080008890800088908000889080008EC
:1000B00089080008890800088908000889080008DC
:1000C00089080008890800088908000889080008CC
:1000D00089080008AD070008890800088908000899
:1000E00089080008890800088908000889080008AC
:1000F000890800088908000889080008890800089C
:10010000890800088908000889080008890800088B
:10011000890800088908000889080008890800087B
:10012000890800088908000889080008890800086B
:10013000890800088908000889080008890800085B
:10014000890800088908000889080008890800084B
:10015000890800088908000889080008890800083B
:10016000890800088908000889080008890800082B
:1001700089080008890800088908000800000000B4
:0401800089080008E2
:1001840010B5054C237833B9044B13B10448AFF3CD
:1001940000800123237010BD5C00002000000000DB
:1001A4004C2F000808B5034B1BB103490348AFF3B8
:1001B400008008BD00000000600000204C2F0008F3
:1001C40053B94AB9002908BF00281CBF4FF0FF31BA
:1001D4004FF0FF3000F086B9ADF1080C6DE904CEA4
:1001E40000F006F8DDF804E0DDE9022304B070470E
:1001F4002DE9F047089D0F4604468E46002B48D152
:100204008A42164661D9B2FA82F24AB1C2F1200397
:1002140001FA02FE20FA03F3964043EA0E0E9440DC
:100224004FEA164CBEFBFCF1B7B20CFB11EE01FB1E
:1002340007F0230C43EA0E43984209D9F31801F15D
:10024400FF3E80F0ED80984240F2EA800239334468
:100254001B1AB3FBFCF00CFB103300FB07F7A4B232
:1002640044EA0344A74209D9341900F1FF3380F06A
:10027400D980A74240F2D6803444023840EA014093
:100284000021E41B1DB10023D440C5E90043BDE8AF
:10029400F0878B4206D90DB1C5E90001002108465B
:1002A400BDE8F087B3FA83F1002947D1BB4202D3FA
:1002B400824200F20481841A67EB0302012096460D
:1002C400002DE4D0C5E9004EE1E7002A00F090805B
:1002D400B2FA82F2002A40F0A780881B0121370C71
:1002E4001FFA86FEB0FBF7FC07FB1C00230C43EA55
:1002F40000430EFB0CF0984207D9F3180CF1FF38B9
:1003040002D2984200F2E080C4461B1AB3FBF7F015
:1003140007FB10330EFB00FEA4B244EA0344A645D7
:1003240007D9341900F1FF3302D2A64500F2C9807F
:100334001846A4EB0E0440EA0C40A3E7C1F12006E2
:100344008B4022FA06FC4CEA030C27FA06FA4FEA21
:100354001C49BAFBF9F88F4020FA06F309FB18AAE6
:100364001FFA8CFE3B4300FA01F708FB0EF01C0C4D
:1003740044EA0A44A04202FA01F20BD91CEB040439
:1003840008F1FF3A80F09980A04240F29680A8F1EB
:1003940002086444241A98B2B4FBF9F309FB134429
:1003A40003FB0EFE40EA0444A64508D91CEB0404F2
:1003B40003F1FF307FD2A6457DD9023B644443EA72
:1003C4000840A4EB0E04A0FB028E74454346F1469C
:1003D40061D35ED055B1FA1A64EB090404FA06F647
:1003E40022FA01F31E43CC40C5E9006400214EE724
:1003F40043084FEA510C43EAC1710A0C42EA0C4229
:100404008BB2C407B2FBF6F143EA0243BCFBF6FC31
:10041400B646304637461F22181A41EA0C4161E7B6
:10042400714615E7184629E7C2F1200321FA03F0C3
:10043400964024FA03F397403B43370CB0FBF7F89C
:1004440007FB18001FFA86FE190C41EA004108FB5D
:100454000EF0884204FA02F43AD9711808F1FF3C0C
:1004640001D288421ED8091AB1FBF7F808FB0EF036
:1004740007FB18119BB243EA014383422FD2F318BE
:1004840008F1FF31C8D28342C6D2A8F10201334435
:10049400C2E747459ED2B8EB02036EEB0C0E01385F
:1004A400F14697E7301A0144A8F1020CB1FBF7F8C2
:1004B40008FB0EF0DCE7034681E7D0466AE708460E
:1004C400FEE63444023834E7ACF1020C33441CE752
:1004D400091AC446B1FBF7F808FB0EF0C8E7414619
:1004E4009AE700BF704700BF80B582B000AF00F04C
:1004F400CBF900F033F800F097F800F06BF86423C0
:100504001A221149114801F031FA114B1B68114AA2
:100514004021114802F04CF878607B68002B09DD1B
:100524007B683F2B06DC7B689AB264230A49074840
:1005340001F01CFA064B1B680133054A13604FF4A3
:100544007A7000F00FFAE0E7742F000878000020BA
:1005540000010020642F0008C000002080B592B084
:1005640000AF07F1180330220021184602F056F8B4
:100574003B1D00221A605A609A60DA601A610223F5
:10058400BB6101237B621023BB6200233B6307F141
:100594001803184600F046FD0346002B01D000F076
:1005A4005BF80F237B600023BB600023FB60002308
:1005B4003B6100237B613B1D0021184600F086FF50
:1005C4000346002B01D000F047F800BF4837BD4672
:1005D40080BD000080B500AF114B124A1A60104B69
:1005E4004FF4E1325A600E4B00229A600C4B002209
:1005F400DA600B4B00221A61094B0C225A61084B3A
:1006040000229A61064B0022DA61054801F05EF986
:100614000346002B01D000F01FF800BF80BD00BFCF
:10062400780000200010014080B483B000AF0023A4
:100634007B60084B1B6B074A43F001031363054BB4
:100644001B6B03F001037B607B6800BF0C37BD4666
:1006540080BC70470038024080B400AF72B600BF5F
:1006640000BFFDE780B483B000AF00237B600F4B75
:100674005B6C0E4A43F4804353640C4B5B6C03F491
:1006840080437B607B6800233B60084B1B6C074AFC
:1006940043F080531364054B1B6C03F080533B60A1
:1006A4003B6800BF0C37BD4680BC70470038024031
:1006B40080B58AB000AF786007F1140300221A6095
:1006C4005A609A60DA601A617B681B681D4A93421B
:1006D40034D100233B611C4B5B6C1B4A43F0100379
:1006E4005364194B5B6C03F010033B613B690023BB
:1006F400FB60154B1B6B144A43F001031363124B4D
:100704001B6B03F00103FB60FB684FF4C0637B6168
:100714000223BB610023FB6103233B6207237B624B
:1007240007F114031946094800F0DEFA00220021FB
:10073400252000F012FA252000F02BFA00BF2837FC
:10074400BD4680BD00100140003802400000024058
:1007540080B400AF00BFFDE780B400AF00BFFDE789
:1007640080B400AF00BFFDE780B400AF00BFFDE779
:1007740080B400AF00BFFDE780B400AF00BFBD464A
:1007840080BC704780B400AF00BFBD4680BC7047DA
:1007940080B400AF00BFBD4680BC704780B500AFD9
:1007A40000F0C4F800BF80BD80B500AF024801F07E
:1007B40069F900BF80BD00BF7800002080B586B015
:1007C40000AF7860144A154BD31A7B617B693B6197
:1007D400134B1B68002B02D1114B124A1A60104BA9
:1007E4001A687B6813443A699A4207D201F01EFFE3
:1007F40003460C221A604FF0FF3309E0084B1B68D4
:10080400FB60074B1A687B681344054A1360FB6856
:1008140018461837BD4680BD0000022000040000C1
:10082400040100205802002080B400AF00BFBD4680
:1008340080BC7047DFF834D0FFF7F6FF0C480D4951
:100844000D4A002302E0D458C4500433C4188C4227
:10085400F9D30A4A0A4C002301E013600432A2428D
:10086400FBD301F0E9FEFFF73FFE704700000220D2
:10087400000000205C000020EC2F00085C00002039
:1008840054020020FEE7000080B500AF0E4B1B6849
:100894000D4A43F4007313600B4B1B680A4A43F47C
:1008A40080631360084B1B68074A43F4807313602A
:1008B400032000F047F90F2000F008F8FFF7D2FEFC
:1008C4000023184680BD00BF003C024080B582B0C2
:1008D40000AF7860124B1A68124B1B7819464FF41C
:1008E4007A73B3FBF1F3B2FBF3F3184600F05FF94C
:1008F4000346002B01D001230EE07B680F2B0AD89E
:10090400002279684FF0FF3000F027F9064A7B682F
:100914001360002300E0012318460837BD4680BD5C
:1009240000000020080000200400002080B400AF74
:10093400054B1B781A46054B1B681344034A136086
:1009440000BFBD4680BC704708000020080100209D
:1009540080B400AF024B1B681846BD4680BC70478C
:100964000801002080B584B000AF7860FFF7F0FF85
:10097400B8607B68FB60FB68B3F1FF3F05D00A4BAE
:100984001B781A46FB681344FB6000BFFFF7E0FFC7
:100994000246BB68D31AFA689A42F7D800BF00BF70
:1009A4001037BD4680BD00BF0800002080B485B06C
:1009B40000AF78607B6803F00703FB600C4BDB68D7
:1009C400BB60BA684FF6FF031340BB60FB681A02B2
:1009D400BB68134343F0BF6343F40033BB60044A72
:1009E400BB68D36000BF1437BD4680BC704700BFEE
:1009F40000ED00E080B400AF044BDB681B0A03F099
:100A040007031846BD4680BC704700BF00ED00E0F8
:100A140080B483B000AF0346FB7197F90730002B15
:100A24000BDBFB7903F01F02064997F907305B09DA
:100A3400012000FA02F241F8232000BF0C37BD4622
:100A440080BC704700E100E080B483B000AF03468F
:100A54003960FB7197F90730002B0ADB3B68DAB287
:100A64000C4997F907301201D2B20B4483F80023E2
:100A74000AE03B68DAB20849FB7903F00F03043B50
:100A84001201D2B20B441A7600BF0C37BD4680BCAB
:100A9400704700BF00E100E000ED00E080B489B0E1
:100AA40000AFF860B9607A60FB6803F00703FB618C
:100AB400FB69C3F10703042B28BF0423BB61FB6953
:100AC4000433062B02D9FB69033B00E000237B615E
:100AD4004FF0FF32BB6902FA03F3DA43BB681A40F2
:100AE4007B699A404FF0FF317B6901FA03F3D943E4
:100AF4007B680B40134318462437BD4680BC7047BF
:100B040080B582B000AF78607B68013BB3F1807F31
:100B140001D301230FE00A4A7B68013B53600F2194
:100B24004FF0FF30FFF790FF054B00229A60044B13
:100B340007221A60002318460837BD4680BD00BF4F
:100B440010E000E080B582B000AF78607868FFF70D
:100B54002DFF00BF0837BD4680BD80B586B000AF0D
:100B64000346B9607A60FB7300237B61FFF742FFA1
:100B740078617A68B9687869FFF790FF024697F957
:100B84000F3011461846FFF75FFF00BF1837BD4608
:100B940080BD80B582B000AF0346FB7197F9073082
:100BA4001846FFF735FF00BF0837BD4680BD80B546
:100BB40082B000AF78607868FFF7A2FF034618465A
:100BC4000837BD4680BD80B584B000AF78607B68CF
:100BD4009B6DFB60FFF7BCFEB8607B6893F8353013
:100BE400DBB2022B08D07B6880225A657B68002226
:100BF40083F83420012352E07B681B681A687B6801
:100C04001B6822F016021A607B681B685A697B68AD
:100C14001B6822F080025A617B681B6C002B03D195
:100C24007B689B6C002B07D07B681B681A687B6809
:100C34001B6822F008021A607B681B681A687B68CC
:100C44001B6822F001021A6013E0FFF781FE0246DE
:100C5400BB68D31A052B0CD97B6820225A657B68A4
:100C6400032283F835207B68002283F83420032391
:100C740015E07B681B681B6803F00103002BE4D1BB
:100C84007B68DB6D3F229A40FB689A607B68012297
:100C940083F835207B68002283F83420002318462B
:100CA4001037BD4680BD80B483B000AF78607B68E8
:100CB40093F83530DBB2022B04D07B6880225A656E
:100CC40001230CE07B68052283F835207B681B68D0
:100CD4001A687B681B6822F001021A600023184618
:100CE4000C37BD4680BC704780B487B000AF7860D5
:100CF400396000237B616FE13B681A6801217B69DD
:100D040001FA03F31340FB60FB68002B00F06181E0
:100D14003B685B6803F00303012B05D03B685B6809
:100D240003F00303022B30D17B689B683B617B6932
:100D34005B00032202FA03F3DB433A6913403B618D
:100D44003B68DA687B695B0002FA03F33A69134390
:100D54003B617B683A699A607B685B683B6101220E
:100D64007B6902FA03F3DB433A6913403B613B6856
:100D74005B681B0903F001027B6902FA03F33A6919
:100D840013433B617B683A695A603B685B6803F0D4
:100D94000303032B17D07B68DB683B617B695B0033
:100DA400032202FA03F3DB433A6913403B613B68D5
:100DB4009A687B695B0002FA03F33A6913433B6167
:100DC4007B683A69DA603B685B6803F00303022BD3
:100DD40023D17B69DA087B68083253F822303B61FF
:100DE4007B6903F007039B000F2202FA03F3DB4342
:100DF4003A6913403B613B681A697B6903F0070356
:100E04009B0002FA03F33A6913433B617B69DA08F6
:100E14007B680832396943F822107B681B683B61A0
:100E24007B695B00032202FA03F3DB433A69134054
:100E34003B613B685B6803F003027B695B0002FA79
:100E440003F33A6913433B617B683A691A603B6870
:100E54005B6803F44033002B00F0BB800023BB60CD
:100E6400644B5B6C634A43F480435364614B5B6C37
:100E740003F48043BB60BB685F4A7B699B08023311
:100E840052F823303B617B6903F003039B000F227C
:100E940002FA03F3DB433A6913403B617B68574A28
:100EA400934231D07B68564A93422BD07B68554A93
:100EB400934225D07B68544A93421FD07B68534A9F
:100EC400934219D07B68524A934213D07B68514AAB
:100ED40093420DD07B68504A934207D07B684F4AB7
:100EE400934201D1082310E009230EE007230CE00C
:100EF40006230AE0052308E0042306E0032304E0B4
:100F0400022302E0012300E000237A6902F00302D5
:100F1400920093401A463B6913433B6136497B690F
:100F24009B0802333A6941F823203D4B9B683B619F
:100F3400FB68DB433A6913403B613B685B6803F43D
:100F44008013002B03D03A69FB6813433B61344A96
:100F54003B699360324BDB683B61FB68DB433A6976
:100F640013403B613B685B6803F40013002B03D020
:100F74003A69FB6813433B61294A3B69D360284BB8
:100F84005B683B61FB68DB433A6913403B613B6848
:100F94005B6803F40033002B03D03A69FB68134306
:100FA4003B611F4A3B6953601D4B1B683B61FB68F7
:100FB400DB433A6913403B613B685B6803F480336D
:100FC400002B03D03A69FB6813433B61144A3B6925
:100FD40013607B6901337B613B681A687B6922FA81
:100FE40003F3002B7FF488AE00BF00BF1C37BD465F
:100FF40080BC7047003802400038014000000240C5
:101004000004024000080240000C024000100240AC
:101014000014024000180240001C0240002002405C
:10102400003C014080B58AB000AF78607B68002B3B
:1010340001D101233BE27B681B6803F00103002B11
:1010440050D09E4B9B6803F00C03042B0CD09B4B9D
:101054009B6803F00C03082B12D1984B5B6803F4D4
:101064008003B3F5800F0BD1944B1B6803F400335A
:10107400002B36D07B685B68002B32D1012316E24B
:101084007B685A688E4BD2B21A707B685B68002BFF
:1010940013D0FFF75DFC386208E0FFF759FC024605
:1010A4003B6AD31A642B01D9032300E2834B1B68E8
:1010B40003F40033002BF0D014E0FFF749FC38624E
:1010C40008E0FFF745FC02463B6AD31A642B01D9BA
:1010D4000323ECE1794B1B6803F40033002BF0D1BC
:1010E40000E000BF7B681B6803F00203002B77D08D
:1010F400724B9B6803F00C03002B0BD06F4B9B6867
:1011040003F00C03082B26D16C4B5B6803F48003BB
:10111400002B20D1694B1B6803F00203002B05D080
:101124007B68DB68012B01D00123C0E1634B1B68A2
:1011340023F0F8027B681B69F821F960F96891FAD9
:10114400A1F139613969B1FA81F1C9B28B405B49C6
:1011540013430B6044E07B68DB68002B2AD0594BB7
:1011640001221A60FFF7F4FB386208E0FFF7F0FB96
:1011740002463B6AD31A022B01D9032397E14F4B52
:101184001B6803F00203002BF0D04C4B1B6823F0C8
:10119400F8027B681B69F8217961796991FAA1F1F8
:1011A400B961B969B1FA81F1C9B28B4043491343BA
:1011B4000B6015E0434B00221A60FFF7C9FB38624D
:1011C40008E0FFF7C5FB02463B6AD31A022B01D99C
:1011D40003236CE1394B1B6803F00203002BF0D1AD
:1011E4007B681B6803F00803002B30D07B685B69C5
:1011F400002B16D0344B01221A60FFF7A9FB38628A
:1012040008E0FFF7A5FB02463B6AD31A022B01D97B
:1012140003234CE1294B5B6F03F00203002BF0D056
:1012240015E0294B00221A60FFF792FB386208E0B0
:10123400FFF78EFB02463B6AD31A022B01D9032324
:1012440035E11E4B5B6F03F00203002BF0D17B688A
:101254001B6803F00403002B00F08780002387F849
:101264002730164B1B6C03F08053002B10D1002346
:10127400BB60124B1B6C114A43F0805313640F4B39
:101284001B6C03F08053BB60BB68012387F82730D5
:101294000E4B1B680D4A43F4807313600B4B1B68A1
:1012A40003F48073002B22D1084B1B68074A43F4D4
:1012B40080731360FFF74CFB386212E00038024081
:1012C4000238024000004742800E4742007000404E
:1012D400FFF73EFB02463B6AD31A022B01D90323D4
:1012E400E5E0754B1B6803F48073002BF0D07B683A
:1012F4009A68724BD2B21A707B689B68002B15D027
:10130400FFF726FB38620AE0FFF722FB02463B6A3E
:10131400D31A41F28832934201D90323C7E0684BC0
:101324001B6F03F00203002BEED014E0FFF710FB59
:1013340038620AE0FFF70CFB02463B6AD31A41F21B
:101344008832934201D90323B1E05D4B1B6F03F054
:101354000203002BEED197F82730012B05D1584B0F
:101364001B6C574A23F0805313647B689B69002BE2
:1013740000F09C80524B9B6803F00C03082B61D057
:101384007B689B69022B46D14E4B00221A60FFF703
:10139400DFFA386208E0FFF7DBFA02463B6AD31A49
:1013A400642B01D9032382E0454B1B6803F00073CF
:1013B400002BF0D1424B5A68434B13407A68D169F1
:1013C4007A68126A11437A68526A920111437A6800
:1013D400D26A120611437A68926A5208013A1204D8
:1013E4000A43374913434B60364B01221A60FFF717
:1013F400AFFA386208E0FFF7ABFA02463B6AD31A49
:10140400642B01D9032352E02D4B1B6803F00073B6
:10141400002BF0D04AE02B4B00221A60FFF798FA19
:10142400386208E0FFF794FA02463B6AD31A642B49
:1014340001D903233BE0224B1B6803F00073002B0C
:10144400F0D133E07B689B69012B01D101232EE0AD
:101454001B4B5B68FB61FB6903F480027B68DB69FF
:101464009A4221D1FB6903F03F027B681B6A9A42CE
:101474001AD1FA6947F6C07313407A68526A920126
:10148400934211D1FB6903F440327B689B6A5B0889
:10149400013B1B049A4207D1FB6903F070627B682D
:1014A400DB6A1B069A4201D0012300E000231846A0
:1014B4002837BD4680BD00BF007000407038024030
:1014C40000380240600047420080BCF080B586B01E
:1014D40000AF786039607B68002B01D10123D2E032
:1014E4006B4B1B6803F00F033A689A420CD9684BA4
:1014F4003A68D2B21A70664B1B6803F00F033A685D
:101504009A4201D00123BEE07B681B6803F002030A
:10151400002B20D07B681B6803F00403002B05D04C
:101524005C4B9B685B4A43F4E05393607B681B68A5
:1015340003F00803002B05D0564B9B68554A43F42F
:1015440060439360534B9B6823F0F0027B689B6875
:10155400504913438B607B681B6803F00103002B25
:1015640040D07B685B68012B07D14A4B1B6803F4AE
:101574000033002B15D1012385E07B685B68022BC7
:1015840007D1444B1B6803F00073002B09D10123DE
:1015940079E0404B1B6803F00203002B01D10123C7
:1015A40071E03C4B9B6823F003027B685B6839491C
:1015B40013438B60FFF7CCF978610AE0FFF7C8F9B1
:1015C40002467B69D31A41F28832934201D903233C
:1015D40059E0304B9B6803F00C027B685B689B000E
:1015E4009A42EBD12A4B1B6803F00F033A689A42E4
:1015F4000CD2274B3A68D2B21A70254B1B6803F001
:101604000F033A689A4201D001233CE07B681B68CF
:1016140003F00403002B08D01E4B9B6823F4E05214
:101624007B68DB681B4913438B607B681B6803F092
:101634000803002B09D0174B9B6823F460427B6896
:101644001B69DB00134913438B6000F02BF8014640
:10165400104B9B6803F0F003F022FA60FA6892FAE8
:10166400A2F23A613A69B2FA82F2D2B2D3400A4A99
:10167400D35C21FA03F3094A1360094B1B6818462B
:10168400FFF724F9002318461837BD4680BD00BF74
:10169400003C024000380240902F00080000002067
:1016A400040000202DE9B04F90B000AF00237B630D
:1016B4000023FB6300233B630023BB63594B9B68FC
:1016C40003F00C03082B0DD0082B00F2A280002B92
:1016D40002D0042B03D09CE0534BBB639CE0534BE0
:1016E400BB6399E04F4B5B6803F03F037B634D4B57
:1016F4005B6803F48003002B27D04A4B5B689B098B
:1017040000223B627A623B6AC3F308000021474B24
:1017140003FB01F2002300FB03F31344434AA0FB41
:101724000221F962BA62FA6A1344FB627B6B0022FB
:10173400BB61FA61D7E90623D7E90A01FEF740FD48
:1017440002460B461346FB6355E0364B5B689B0928
:1017540000223B617A613B69C3F3080A4FF0000B36
:1017640052465B464FF000004FF00001590141EA38
:10177400D261500102460B46B2EB0A0863EB0B0937
:101784004FF000024FF000034FEA891343EA9863D5
:101794004FEA8812B2EB080463EB09054FF000022C
:1017A4004FF00003EB0043EA5473E20014461D4675
:1017B40014EB0A033B6045EB0B037B604FF0000224
:1017C4004FF00003D7E9004529468B0220462946FD
:1017D400044643EA945301468A02104619467B6B39
:1017E4000022BB60FA60D7E90223FEF7E9FC024657
:1017F4000B461346FB630B4B5B681B0C03F00303A4
:1018040001335B003B63FA6B3B6BB2FBF3F3BB63EB
:1018140002E0054BBB6300BFBB6B18464037BD46B7
:10182400BDE8B08F003802400024F40040787D0108
:1018340080B400AF024B1B681846BD4680BC70479D
:101844000000002080B582B000AFFFF7F1FF014631
:101854000B4B9B6803F4E0534FF4E0527A607A68D0
:1018640092FAA2F23A603A68B2FA82F2D2B2D34061
:10187400044AD35C21FA03F318460837BD4680BDF9
:1018840000380240A02F000880B582B000AFFFF7F7
:10189400CFFF01460B4B9B6803F460434FF4604257
:1018A4007A607A6892FAA2F23A603A68B2FA82F2FC
:1018B400D2B2D340044AD35C21FA03F31846083762
:1018C400BD4680BD00380240A02F000880B582B01C
:1018D40000AF78607B68002B01D1012342E07B6874
:1018E40093F84130DBB2002B06D17B68002283F8E9
:1018F40040207868FEF7DCFE7B68242283F84120D0
:101904007B681B68DA687B681B6822F40052DA6023
:10191400786800F063FD7B681B681A697B681B6844
:1019240022F490421A617B681B685A697B681B68C1
:1019340022F02A025A617B681B68DA687B681B689C
:1019440042F40052DA607B6800225A647B682022E9
:1019540083F841207B68202283F842207B680022A0
:101964005A63002318460837BD4680BD80B58AB047
:1019740002AFF860B9603B601346FB8000237B61D3
:10198400FB6893F84130DBB2202B75D1BB68002B88
:1019940002D0FB88002B01D101236EE0FB680022FA
:1019A4005A64FB68212283F84120FEF7D1FF786155
:1019B400FB68FA889A84FB68FA88DA84FB689B6877
:1019C400B3F5805F08D1FB681B69002B04D10023A9
:1019D400FB61BB68BB6103E0BB68FB610023BB61C7
:1019E4002EE03B6800937B6900228021F86800F0B8
:1019F40001FB0346002B05D0FB68202283F841201D
:101A040003233AE0FB69002B0BD1BB691B881A4600
:101A1400FB681B68C2F308025A60BB690233BB61EE
:101A240007E0FB691A78FB681B685A60FB6901339D
:101A3400FB61FB68DB8C9BB2013B9AB2FB68DA84E6
:101A4400FB68DB8C9BB2002BCBD13B6800937B699A
:101A540000224021F86800F0CDFA0346002B05D09F
:101A6400FB68202283F84120032306E0FB68202240
:101A740083F84120002300E0022318462037BD46A6
:101A840080BD000080B5BAB000AF78607B681B6889
:101A94001B68C7F8E4307B681B68DB68C7F8E03074
:101AA4007B681B685B69C7F8DC300023C7F8D83053
:101AB4000023C7F8D430D7F8E43003F00F03C7F895
:101AC400D830D7F8D830002B0FD1D7F8E43003F052
:101AD4002003002B09D0D7F8E03003F02003002BBB
:101AE40003D0786800F0BCFB5BE2D7F8D830002B59
:101AF40000F0DE80D7F8DC3003F00103002B06D1C0
:101B0400D7F8E03003F49073002B00F0D180D7F8BD
:101B1400E43003F00103002B0BD0D7F8E03003F4DA
:101B24008073002B05D07B685B6C43F001027B68FB
:101B34005A64D7F8E43003F00403002B0BD0D7F831
:101B4400DC3003F00103002B05D07B685B6C43F0B1
:101B540002027B685A64D7F8E43003F00203002BD6
:101B64000BD0D7F8DC3003F00103002B05D07B68E1
:101B74005B6C43F004027B685A64D7F8E43003F0EA
:101B84000803002B11D0D7F8E03003F02003002B1A
:101B940005D1D7F8DC3003F00103002B05D07B68B6
:101BA4005B6C43F008027B685A647B685B6C002BB7
:101BB40000F0F281D7F8E43003F02003002B08D0C2
:101BC400D7F8E03003F02003002B02D0786800F04F
:101BD40047FB7B681B685B6903F04003402B0CBF29
:101BE40001230023DBB2C7F8D4307B685B6C03F0BD
:101BF4000803002B03D1D7F8D430002B4FD07868DA
:101C040000F051FA7B681B685B6903F04003402BCA
:101C140041D17B681B681433C7F89C30D7F89C30DB
:101C240053E8003FC7F89830D7F8983023F04003C2
:101C3400C7F8D0307B681B681433D7F8D020C7F8B6
:101C4400A820C7F8A430D7F8A410D7F8A82041E8F2
:101C54000023C7F8A030D7F8A030002BD9D17B6877
:101C6400DB6B002B13D07B68DB6B7E4A1A657B68C9
:101C7400DB6B1846FFF717F80346002B16D07B687A
:101C8400DB6B1B6D7A68D26B104698470EE0786860
:101C940000F09CF90AE0786800F098F906E07868AA
:101CA40000F094F97B6800225A6475E100BF73E187
:101CB4007B681B6B012B40F04F81D7F8E43003F0B5
:101CC4001003002B00F04881D7F8E03003F0100334
:101CD400002B00F041810023BB607B681B681B68FC
:101CE400BB607B681B685B68BB60BB687B681B6808
:101CF4005B6903F04003402B40F0B6807B68DB6BEC
:101D04001B685B68A7F8BE30B7F8BE30002B00F044
:101D140045817B689B8DB7F8BE209A4280F03E8156
:101D24007B68B7F8BE20DA857B68DB6BDB69B3F5CB
:101D3400807F00F088807B681B680C33C7F888308C
:101D4400D7F8883053E8003FC7F88430D7F8843098
:101D540023F48073C7F8B8307B681B680C33D7F85A
:101D6400B820C7F89420C7F89030D7F89010D7F867
:101D7400942041E80023C7F88C30D7F88C30002B2E
:101D8400D9D17B681B6814337B677B6F53E8003FB2
:101D94003B673B6F23F00103C7F8B4307B681B68D3
:101DA4001433D7F8B420C7F88020FB67F96FD7F84D
:101DB400802041E80023BB67BB6F002BE1D17B6827
:101DC4001B6814333B663B6E53E8003FFB65FB6DB9
:101DD40023F04003C7F8B0307B681B681433D7F88E
:101DE400B020FA66BB66B96EFA6E41E800237B66E2
:101DF4007B6E002BE3D17B68202283F842207B6832
:101E040000221A637B681B680C33FB64FB6C53E889
:101E1400003FBB64BB6C23F01003C7F8AC307B6895
:101E24001B680C33D7F8AC20BA657B65796DBA6D45
:101E340041E800233B653B6D002BE3D17B68DB6B02
:101E44001846FEF7C0FE7B6802225A637B689A8DAF
:101E54007B68DB8D9BB2D31A9BB21946786800F07D
:101E6400BEF89BE06F2100087B689A8D7B68DB8D50
:101E74009BB2D31AA7F8CE307B68DB8D9BB2002BC4
:101E840000F08E80B7F8CE30002B00F089807B689C
:101E94001B680C33BB63BB6B53E8003F7B637B6BFA
:101EA40023F49073C7F8C8307B681B680C33D7F8E9
:101EB400C8207A643B64396C7A6C41E80023FB6384
:101EC400FB6B002BE3D17B681B6814337B627B6A5A
:101ED40053E8003F3B623B6A23F00103C7F8C43078
:101EE4007B681B681433D7F8C4203A63FB62F96A31
:101EF4003A6B41E80023BB62BB6A002BE3D17B68E9
:101F0400202283F842207B6800221A637B681B68C6
:101F14000C333B613B6953E8003FFB60FB6823F0F3
:101F24001003C7F8C0307B681B680C33D7F8C02097
:101F3400FA61BB61B969FA6941E800237B617B6995
:101F4400002BE3D17B6802225A63B7F8CE301946DE
:101F5400786800F044F823E0D7F8E43003F0800315
:101F6400002B09D0D7F8E03003F08003002B03D016
:101F7400786800F00EF914E0D7F8E43003F0400379
:101F8400002B0ED0D7F8E03003F04003002B08D02C
:101F9400786800F04DF904E000BF02E000BF00E003
:101FA40000BFE837BD4680BD80B483B000AF786021
:101FB40000BF0C37BD4680BC704780B483B000AF0F
:101FC400786000BF0C37BD4680BC704780B483B0D6
:101FD40000AF786000BF0C37BD4680BC704780B44A
:101FE40083B000AF78600B467B8000BF0C37BD46E2
:101FF40080BC704780B586B000AFF860B9603B60C4
:102004001346FB713BE03B6AB3F1FF3F37D0FEF769
:102014009FFC02463B68D31A3A6A9A4202D33B6A4F
:10202400002B01D103233AE0FB681B68DB6803F053
:102034000403002B23D0BB68802B20D0BB68402B2B
:102044001DD0FB681B681B6803F00803082B16D11E
:1020540000237B61FB681B681B687B61FB681B6852
:102064005B687B617B69F86800F01DF8FB680822F7
:102074005A64FB68002283F8402001230FE0FB68C8
:102084001B681A68BB681340BA689A420CBF0123E4
:102094000023DBB21A46FB799A42B4D000231846D7
:1020A4001837BD4680BD80B495B000AF78607B68BA
:1020B4001B680C337B637B6B53E8003F3B633B6BD8
:1020C40023F49073FB647B681B680C33FA6C3A64EA
:1020D400FB63F96B3A6C41E80023BB63BB6B002BD9
:1020E400E5D17B681B6814333B623B6A53E8003FCD
:1020F400FB61FB6923F00103BB647B681B68143339
:10210400BA6CFA62BB62B96AFA6A41E800237B627C
:102114007B6A002BE5D17B681B6B012B19D17B6893
:102124001B680C33FB60FB6853E8003FBB60BB6873
:1021340023F010037B647B681B680C337A6CBA61F0
:102144007B617969BA6941E800233B613B69002BF3
:10215400E5D17B68202283F842207B6800221A6341
:1021640000BF5437BD4680BC704780B584B000AF13
:1021740078607B689B6BFB60FB680022DA85FB68F8
:102184000022DA84F868FFF721FF00BF1037BD464C
:1021940080BD80B485B000AF78607B6893F841302F
:1021A400DBB2212B3ED17B689B68B3F5805F14D1F1
:1021B4007B681B69002B10D17B681B6AFB60FB6882
:1021C4001B881A467B681B68C2F308025A607B6846
:1021D4001B6A9A1C7B681A6208E07B681B6A591C9C
:1021E4007A6811621A787B681B685A607B68DB8C9A
:1021F4009BB2013B9BB27A681946D184002B0FD164
:102204007B681B68DA687B681B6822F08002DA60EE
:102214007B681B68DA687B681B6842F04002DA60FE
:10222400002300E0022318461437BD4680BC7047E3
:1022340080B582B000AF78607B681B68DA687B6821
:102244001B6822F04002DA607B68202283F8412078
:102254007868FFF7A9FE002318460837BD4680BDFD
:1022640080B58CB000AF78607B6893F84230DBB205
:10227400222B40F0AE807B689B68B3F5805F17D15A
:102284007B681B69002B13D10023FB627B689B6A6C
:10229400BB627B681B685B689BB2C3F308039AB29A
:1022A400BB6A1A807B689B6A9A1C7B689A6226E0E8
:1022B4007B689B6AFB620023BB627B689B68B3F507
:1022C400805F07D07B689B68002B0AD17B681B6901
:1022D400002B06D17B681B685B68DAB2FB6A1A7054
:1022E40008E07B681B685B68DBB203F07F03DAB24B
:1022F400FB6A1A707B689B6A5A1C7B689A627B68CB
:10230400DB8D9BB2013B9BB27A681946D185002BC9
:102314005DD17B681B68DA687B681B6822F0200249
:10232400DA607B681B68DA687B681B6822F4807259
:10233400DA607B681B685A697B681B6822F00102BB
:102344005A617B68202283F842207B6800225A630A
:102354007B681B6B012B35D17B6800221A637B6879
:102364001B680C337B617B6953E8003F3B613B692D
:1023740023F010037B627B681B680C337A6A3A6231
:10238400FB61F9693A6A41E80023BB61BB69002B30
:10239400E5D17B681B681B6803F01003102B0AD17E
:1023A4000023FB607B681B681B68FB607B681B6801
:1023B4005B68FB60FB687B689B8D19467868FFF758
:1023C4000EFE02E07868FFF7F8FD002302E0002328
:1023D40000E0022318463037BD4680BD80B584B086
:1023E40000AF78607B681B681B6923F440517B68ED
:1023F400DA687B681B680A431A617B689A687B68A1
:102404001B691A437B685B691A437B68DB69134366
:10241400BB607B681B68DB6823F4164323F00C0362
:102424007A681268B9680B43D3607B681B685B6980
:1024340023F440717B689A697B681B680A435A617C
:102444007B681B68574A934204D07B681B68564AD2
:10245400934203D1FFF718FAF86002E0FFF7F2F9AC
:10246400F8607B68DB69B3F5004F4CD1FA6813461A
:102474009B0013449A001A447B685B685B00B2FBC0
:10248400F3F34A4AA2FB03235B091901FA681346D2
:102494009B0013449A001A447B685B685B00B2FBA0
:1024A400F3F2424BA3FB02035B09642000FB03F33A
:1024B400D31ADB0032333D4AA2FB03235B095B00E2
:1024C40003F4F8731944FA6813469B0013449A0002
:1024D4001A447B685B685B00B2FBF3F2334BA3FBEB
:1024E40002035B09642000FB03F3D31ADB003233DD
:1024F4002E4AA2FB03235B0903F007027B681B68D7
:102504000A449A604AE0FA6813469B0013449A000E
:102514001A447B685B689B00B2FBF3F3234AA2FB7B
:1025240003235B091901FA6813469B0013449A00BC
:102534001A447B685B689B00B2FBF3F21B4BA3FB62
:1025440002035B09642000FB03F3D31A1B0132333B
:10255400164AA2FB03235B0903F0F0031944FA684B
:1025640013469B0013449A001A447B685B689B00E3
:10257400B2FBF3F20D4BA3FB02035B09642000FBE7
:1025840003F3D31A1B013233084AA2FB03235B096A
:1025940003F00F027B681B680A449A6000BF10377F
:1025A400BD4680BD00100140001401401F85EB5161
:1025B4000CB430B5184B0C1E1D689DB008DA8B2383
:1025C4004FF0FF302B601DB0BDE8304002B07047C3
:1025D4004FF40273ADF814304FF000031B930CBF9B
:1025E400234604F1FF33049307934FF6FF730290DD
:1025F4000690ADF81630284621AB209A02A9019323
:1026040000F096F9431CBCBF8B232B60002CDAD05E
:102614000022029B1A70D6E70C00002003460244F5
:10262400934200D1704703F8011BF9E7014B186886
:10263400704700BF0C00002070B500260C4D0D4BF8
:102644005B1B9C10A64209D1002600F07DFC0A4DBC
:102654000A4B5B1B9C10A64205D170BD55F8043B88
:1026640098470136EEE755F8043B98470136F2E700
:10267400E42F0008E42F0008E42F0008E82F0008E6
:102684007047704738B50546002940D051F8043CDE
:102694000C1F002BB8BFE41800F0DEF81C4A1368C6
:1026A40033B9636014602846BDE8384000F0DAB8F6
:1026B400A34208D9206821188B4201BF19685B68BE
:1026C40009182160EDE71A465B680BB1A342FAD9F9
:1026D40011685018A0420BD120680144501883425D
:1026E4001160E0D118685B68084410605360DAE751
:1026F40002D90C232B60D6E7206821188B4201BF36
:1027040019685B680918216063605460CBE738BDC1
:102714005002002070B50F4E0C463168054611B9C1
:1027240000F0B0FB30602146284600F0ABFB431CB0
:1027340003D14FF0FF34204670BDC41C24F00304C1
:10274400A042F8D0211A284600F09CFB0130F2D1B7
:10275400EFE700BF4C0200202DE9F843CD1C25F023
:10276400030508350C2D38BF0C25002D064601DB6A
:10277400A94204D90C2333600020BDE8F883DFF8B4
:10278400D48000F069F8D8F800301C4644BB2946D0
:102794003046FFF7BFFF431C044658D1D8F8004029
:1027A4002746002F43D1002C4BD0236839463046AE
:1027B40004EB030900F066FB814542D121683046F1
:1027C4006D1A2946FFF7A6FF01303AD023682B443F
:1027D4002360D8F800305A6862BBC8F800700FE074
:1027E4002268521B20D40B2A17D96119A3422560F1
:1027F40018BF5960636808BFC8F8001062514B6085
:10280400304600F02FF804F10B00231D20F00700E0
:10281400C21A1CBF1B1AA350AFE76268A3420CBFC5
:10282400C8F800205A60EBE723466468AEE73C46EC
:102834007F68B6E71A465B68A342FBD10023536066
:10284400DEE70C233046336000F00CF894E70560B3
:10285400D6E700BF500200200148FFF711BF00BFB8
:10286400480200200148FFF70CBF00BF48020020C7
:102874002DE9F0471F468E688246BE420C469046BC
:10288400334653D8B1F90C0010F4906F2BD065691E
:102894002368096905EB4505A3EB010905EBD5752B
:1028A4007B1C6D104B44AB422A4684BF1D462A460E
:1028B400430527D511465046FFF74EFF064658B349
:1028C4004A46216900F0FCFAA38923F4906343F09B
:1028D4008003A38126614E4426603B463E466561E3
:1028E400A5EB0905A5601F463A464146206800F05D
:1028F400AFFA0020A3689B1BA36023683B442360BA
:10290400BDE8F087504600F0E9FA06460028E1D118
:1029140050462169FFF7B6FE0C23CAF80030A3899C
:102924004FF0FF3043F04003A381E9E73E46DBE785
:102934002DE9F0471F468B8906461B060D461446B3
:102944009CB010D50B6973B94021FFF705FF2860CF
:10295400286130B90C2333604FF0FF301CB0BDE860
:10296400F08740236B610023099320238DF82930DD
:1029740030234FF001080397644F8DF82A30234623
:10298400994613F8012B0AB1252AF9D1B9EB040AA7
:102994000BD05346224629463046FFF769FF0130E3
:1029A40000F0A480099A5244099299F80030002B4F
:1029B40000F09C8000234FF0FF32CDE9052309F19C
:1029C4000109049307938DF853301A934C4605225A
:1029D40014F8011B4D4800F065FA049BD0B9D806E1
:1029E40044BF20228DF85320190744BF2B228DF8B1
:1029F400532099F800202A2A13D04C4600204FF087
:102A04000A0C079A214611F8013B303B092B49D99E
:102A140068B913E0C01B08FA00F01843A1460490FB
:102A2400D4E7039A111D12680391002A01DB07926F
:102A340004E0524243F002030792049323782E2BBE
:102A44000AD163782A2B32D1039B02341A1D1B68E6
:102A5400039243EAE3730593DFF8B49003224846F4
:102A6400217800F01FFA38B14022049BA0EB090042
:102A7400824013430134049314F8011B06222548B1
:102A84008DF8281000F00EFA002835D0224818BB23
:102A9400039B073323F0070308330393099B034481
:102AA40009936CE70C4601200CFB0232AAE70023D1
:102AB4004FF00A0C194601340593204610F8012BF7
:102AC400303A092A03D9002BC6D00591C4E704463D
:102AD40001230CFB0121F0E703AB00932A463046A7
:102AE4000E4B04A9AFF30080421CD7D1AB895B061F
:102AF4003FF532AF099831E703AB00932A463046DD
:102B0400064B04A900F07EF8EEE700BFA82F0008EA
:102B1400AE2F0008B22F000800000000752800083E
:102B24002DE9F047164698468A680B690746934292
:102B3400B8BF1346336091F843200C46DDF820906B
:102B44000AB1013333602368990642BF3368023304
:102B54003360256815F0060506D104F1190AE36807
:102B640032689B1AAB422BDC94F843302268003B5A
:102B740018BF0123920630D44146384604F143027B
:102B8400C847013023D02368226903F00603042BCD
:102B940014BF002533684FF0000608BFE56804F150
:102BA4001A0408BFED1A54F8123C08BF25EAE5756B
:102BB4009342C4BF9B1AED18B5421AD1002008E015
:102BC4000123524641463846C847013003D14FF0ED
:102BD400FF30BDE8F0870135C1E73020E11881F806
:102BE40043005A1C94F845102244023382F84310DF
:102BF400C2E70123224641463846C8470130E6D0A1
:102C04000136D9E72DE9F0430D7E85B0782D904645
:102C140007460C4699460C9E01F1430207D8622DE3
:102C24000AD8002D00F0D780582D00F0BC8004F1A4
:102C3400420684F842503BE0A5F16303152BF6D815
:102C440001A151F823F000BFA52C0008B92C0008FD
:102C5400332C0008332C0008332C0008332C0008D4
:102C6400B92C0008332C0008332C0008332C00083E
:102C7400332C0008C12D0008E32C0008732D000834
:102C8400332C0008332C0008E32D0008332C0008F3
:102C9400E32C0008332C0008332C00087B2D00089B
:102CA40033681A1D1B68326004F1420684F842300E
:102CB4000123A1E033682068191D3160060601D59F
:102CC4001D6803E04506FBD5B3F90050002D03DA77
:102CD4002D236D4284F843300A235B4811E02168B8
:102CE4003368080653F8045B02D4490648BFADB202
:102CF4003360237E54486F2B5CD10823002184F871
:102D040043106668002EA66005DB21682E4321F07F
:102D14000401216050D01646B5FBF3F103FB115CAE
:102D240010F80CC006F801CDAC4663450D46F3D946
:102D3400082B0BD12368DB0708D523696168994206
:102D4400DEBF302306F8013C06F1FF36921B2261F8
:102D5400434621463846CDF8009003AAFFF7E0FE2B
:102D640001304ED14FF0FF3005B0BDE8F083236849
:102D740043F0200323607825344884F845502368C1
:102D8400316813F0800F51F8045B03D113F0400F46
:102D940018BFADB23160D90744BF43F020032360AC
:102DA4001DB11023AAE72848E7E7236823F020038E
:102DB4002360F6E70A23A1E71646B9E733682568D6
:102DC400181D616930602E061B6801D5196002E088
:102DD4006806FBD51980002316462361B8E73368DB
:102DE40000211A1D32601E686268304600F05AF8ED
:102DF40008B1801B606063682361002384F843305A
:102E0400A6E73246414638462369C8470130A9D06F
:102E140023689B0713D4E068039B9842B8BF184605
:102E2400A2E70123324641463846C847013099D0CB
:102E34000135E36803995B1AAB42F2DCEBE700254A
:102E440004F11906F5E700BFB92F0008CA2F0008DE
:102E5400884210B501EB020402D98442234607D804
:102E6400431EA14207D011F8012B03F8012FF8E704
:102E74000244824200D110BD13F8011D02F8011D65
:102E8400F7E7000038B50023054D044608462B60DB
:102E9400FDF794FC431C02D12B6803B1236038BDB9
:102EA40044020020034610B5C9B2024493421846B6
:102EB40001D1002003E0047801338C42F6D110BD27
:102EC4000A44914200F1FF3300D1704710B511F864
:102ED400014B914203F8014FF9D110BD2DE9F041A6
:102EE400074614460D4621B91146BDE8F041FFF7E7
:102EF40033BC2AB9FFF7C6FB25462846BDE8F08156
:102F040000F01AF88442064602D8B4EB500FF4D805
:102F140021463846FFF720FC804608B94546ECE7D1
:102F2400B4422246294628BF3246FFF7C9FF294644
:102F34003846FFF7A7FBF1E751F8043C181F002BB4
:102F4400BCBF0B58C0187047F8B500BFF8BC08BC2C
:102F54009E467047F8B500BFF8BC08BC9E46704753
:102F6400436F756E7465723A20256C750D0A000006
:102F74000D0A53544D3332463230372055534152A3
:102F840054312052454144590D0A0000000000000C
:102F94000000000001020304060708090000000005
:102FA40001020304232D302B2000686C4C0065665D
:102FB4006745464700303132333435363738394186
:102FC400424344454600303132333435363738399C
:082FD4006162636465660000A0
:082FDC0018D2FF7F0100000084
:042FE400A901000837
:042FE8008501000857
:102FEC000024F4001000000001000000100000207C
:102FFC00000000000C01002074010020DC01002006
:10300C0000000000000000000000000000000000B4
:10301C0000000000000000000000000000000000A4
:10302C000000000000000000000000000000000094
:0C303C0000000000000000000000000088
:0400000508000839AE
:00000001FF
